:100000000C9434000C943E000C943E000C943E0082
:100010000C943E000C943E000C943E000C943E0068
:100020000C943E000C943E000C943E000C943E0058
:100030000C943E000C943E000C943E000C943E0048
:100040000C943E000C943E000C943E000C943E0038
:100050000C943E005C009C00DC001C015C019C01D7
:10006000DC011C025C029C0211241FBECFE5D8E01B
:10007000DEBFCDBF0E94E1020C94AA040C940000E4
:10008000CF93DF931F92CDB7DEB789838981882F05
:1000900090E0092E000CAA0BBB0B40E050E029E0D9
:1000A00030E0841B950B2817390708F485C2865D5C
:1000B0009F4FFC010C94890385E390E025E330E039
:1000C000F90120812D7FFC01208385E390E025E369
:1000D00030E0F90120812B7FFC01208385E390E053
:1000E00025E330E0F9012081277FFC01208385E3AF
:1000F00090E025E330E0F90120812F7EFC01208390
:1001000085E390E025E330E0F90120812F7DFC01BB
:10011000208385E390E025E330E0F90120812F7B07
:10012000FC01208385E390E025E330E0F9012081A4
:100130002068FC01208340C285E390E025E330E0A5
:10014000F90120812260FC01208385E390E025E312
:1001500030E0F90120812B7FFC01208385E390E0D2
:1001600025E330E0F9012081277FFC01208385E32E
:1001700090E025E330E0F90120812061FC0120833B
:1001800085E390E025E330E0F90120812062FC0165
:10019000208385E390E025E330E0F90120812064AD
:1001A000FC01208385E390E025E330E0F901208124
:1001B0002068FC01208300C285E390E025E330E065
:1001C000F90120812D7FFC01208385E390E025E368
:1001D00030E0F90120812B7FFC01208385E390E052
:1001E00025E330E0F90120812860FC01208385E3CC
:1001F00090E025E330E0F90120812F7EFC0120838F
:1002000085E390E025E330E0F90120812F7DFC01BA
:10021000208385E390E025E330E0F901208120642C
:10022000FC01208385E390E025E330E0F9012081A3
:100230002F77FC012083C0C185E390E025E330E007
:10024000F90120812D7FFC01208385E390E025E3E7
:1002500030E0F90120812B7FFC01208385E390E0D1
:1002600025E330E0F9012081277FFC01208385E32D
:1002700090E025E330E0F90120812F7EFC0120830E
:1002800085E390E025E330E0F90120812062FC0164
:10029000208385E390E025E330E0F90120812064AC
:1002A000FC01208385E390E025E330E0F901208123
:1002B0002F77FC01208380C185E390E025E330E0C7
:1002C000F90120812260FC01208385E390E025E391
:1002D00030E0F90120812B7FFC01208385E390E051
:1002E00025E330E0F9012081277FFC01208385E3AD
:1002F00090E025E330E0F90120812061FC012083BA
:1003000085E390E025E330E0F90120812062FC01E3
:10031000208385E390E025E330E0F90120812F7B05
:10032000FC01208385E390E025E330E0F9012081A2
:100330002F77FC01208340C185E390E025E330E086
:10034000F90120812D7FFC01208385E390E025E3E6
:1003500030E0F90120812460FC01208385E390E0F6
:1003600025E330E0F9012081277FFC01208385E32C
:1003700090E025E330E0F90120812F7EFC0120830D
:1003800085E390E025E330E0F90120812062FC0163
:10039000208385E390E025E330E0F90120812F7B85
:1003A000FC01208385E390E025E330E0F901208122
:1003B0002F77FC01208300C185E390E025E330E046
:1003C000F90120812D7FFC01208385E390E025E366
:1003D00030E0F90120812460FC01208385E390E076
:1003E00025E330E0F9012081277FFC01208385E3AC
:1003F00090E025E330E0F90120812F7EFC0120838D
:1004000085E390E025E330E0F90120812F7DFC01B8
:10041000208385E390E025E330E0F90120812F7B04
:10042000FC01208385E390E025E330E0F9012081A1
:100430002F77FC012083C0C085E390E025E330E006
:10044000F90120812D7FFC01208385E390E025E3E5
:1004500030E0F90120812B7FFC01208385E390E0CF
:1004600025E330E0F9012081277FFC01208385E32B
:1004700090E025E330E0F90120812061FC01208338
:1004800085E390E025E330E0F90120812062FC0162
:10049000208385E390E025E330E0F90120812064AA
:1004A000FC01208385E390E025E330E0F901208121
:1004B0002068FC01208380C085E390E025E330E0E4
:1004C000F90120812D7FFC01208385E390E025E365
:1004D00030E0F90120812B7FFC01208385E390E04F
:1004E00025E330E0F9012081277FFC01208385E3AB
:1004F00090E025E330E0F90120812F7EFC0120838C
:1005000085E390E025E330E0F90120812F7DFC01B7
:10051000208385E390E025E330E0F90120812F7B03
:10052000FC01208385E390E025E330E0F9012081A0
:100530002F77FC01208340C085E390E025E330E085
:10054000F90120812D7FFC01208385E390E025E3E4
:1005500030E0F90120812B7FFC01208385E390E0CE
:1005600025E330E0F9012081277FFC01208385E32A
:1005700090E025E330E0F90120812F7EFC0120830B
:1005800085E390E025E330E0F90120812062FC0161
:10059000208385E390E025E330E0F90120812F7B83
:1005A000FC01208385E390E025E330E0F901208120
:1005B0002F77FC012083000000000F90DF91CF9186
:1005C0000895CF93DF93CDB7DEB760970FB6F89459
:1005D000DEBF0FBECDBF84E390E024E330E0F9013D
:1005E00020812160FC01208385E390E025E330E059
:1005F000F90120812160FC01208384E390E02FEF4A
:10060000FC01208385E390E0FC0110821A821982AC
:100610007AC089810E94400080E090E0AAE7B4E4BB
:100620008B839C83AD83BE8320E030E04AE755E4B2
:100630006B817C818D819E810E941504DC01CB0140
:100640008F839887A987BA8720E030E040E85FE38E
:100650006F81788589859A850E948F0388232CF481
:1006600081E090E09C878B873FC020E03FEF4FE721
:1006700057E46F81788589859A850E941004181641
:100680004CF520E030E040E251E46B817C818D81CB
:100690009E810E941504DC01CB01BC01CD010E94AA
:1006A0009403DC01CB019C878B870FC080E991E02C
:1006B0009E878D878D859E850197F1F79E878D8713
:1006C0008B859C8501979C878B878B859C85892B47
:1006D00069F714C06F81788589859A850E94940393
:1006E000DC01CB019C878B878B859C85988B8F87C2
:1006F0008F8598890197F1F7988B8F8789819A81E7
:1007000001969A83898389819A8109970CF481CF14
:100710007DCFEE0FFF1F0590F491E02D09940E940C
:10072000C30308F481E008950E94EF0388F09F5707
:1007300098F0B92F9927B751B0F0E1F0660F771F05
:10074000881F991F1AF0BA95C9F714C0B13091F0FB
:100750000E940904B1E008950C940904672F782FD2
:100760008827B85F39F0B93FCCF3869577956795C0
:10077000B395D9F73EF490958095709561957F4F2C
:100780008F4F9F4F0895990F0008550FAA0BE0E86F
:10079000FEEF16161706E807F907C0F01216130643
:1007A000E407F50798F0621B730B840B950B39F483
:1007B0000A2661F0232B242B252B21F408950A26E9
:1007C00009F4A140A6958FEF811D811D089557FD65
:1007D0009058440F551F59F05F3F71F04795880FAF
:1007E00097FB991F61F09F3F79F087950895121646
:1007F00013061406551FF2CF4695F1DF08C01616F2
:1008000017061806991FF1CF8695710561050894A2
:100810000895E894BB2766277727CB0197F90895B9
:100820000E94C30308F48FEF08950E9428040C94DB
:1008300099040E948B0438F00E94920420F09523C2
:1008400011F00C9482040C94880411240C940A0472
:100850000E94E70370F3959FC1F3950F50E0551F79
:10086000629FF001729FBB27F00DB11D639FAA2705
:10087000F00DB11DAA1F649F6627B00DA11D661F54
:10088000829F2227B00DA11D621F739FB00DA11D75
:10089000621F839FA00D611D221F749F3327A00D2F
:1008A000611D231F849F600D211D822F762F6A2FCB
:1008B00011249F5750409AF0F1F088234AF0EE0F30
:1008C000FF1FBB1F661F771F881F91505040A9F75D
:1008D0009E3F510580F00C9482040C940A045F3F03
:1008E000E4F3983ED4F3869577956795B795F79599
:1008F000E7959F5FC1F7FE2B880F911D9695879511
:1009000097F9089597F99F6780E870E060E008958F
:100910009FEF80EC089500240A9416161706180617
:100920000906089500240A941216130614060506F3
:100930000895092E0394000C11F4882352F0BB0F84
:1009400040F4BF2B11F460FF04C06F5F7F4F8F4FE7
:080950009F4F0895F894FFCFBA
:00000001FF
